{
  "_format": "hh-sol-artifact-1",
  "contractName": "ProductFactory",
  "sourceName": "contracts/ProductFactory.sol",
  "abi": [
    {
      "inputs": [],
      "stateMutability": "nonpayable",
      "type": "constructor"
    },
    {
      "inputs": [],
      "name": "ProductFactory__NotSeller",
      "type": "error"
    },
    {
      "inputs": [],
      "name": "ProductFactory__ProductNotValid",
      "type": "error"
    },
    {
      "anonymous": false,
      "inputs": [
        {
          "indexed": true,
          "internalType": "address",
          "name": "productAddress",
          "type": "address"
        },
        {
          "indexed": true,
          "internalType": "uint256",
          "name": "time",
          "type": "uint256"
        },
        {
          "indexed": true,
          "internalType": "uint256",
          "name": "warrantyPeriod",
          "type": "uint256"
        }
      ],
      "name": "ProductAdded",
      "type": "event"
    },
    {
      "anonymous": false,
      "inputs": [
        {
          "indexed": true,
          "internalType": "address",
          "name": "productAddress",
          "type": "address"
        },
        {
          "indexed": true,
          "internalType": "uint256",
          "name": "time",
          "type": "uint256"
        }
      ],
      "name": "ProductDeleted",
      "type": "event"
    },
    {
      "inputs": [
        {
          "internalType": "string",
          "name": "name_",
          "type": "string"
        },
        {
          "internalType": "string",
          "name": "symbol_",
          "type": "string"
        },
        {
          "internalType": "uint256",
          "name": "warrantyPeriod_",
          "type": "uint256"
        },
        {
          "internalType": "uint256",
          "name": "quantity_",
          "type": "uint256"
        },
        {
          "internalType": "string",
          "name": "ProductURI",
          "type": "string"
        }
      ],
      "name": "addProduct",
      "outputs": [],
      "stateMutability": "nonpayable",
      "type": "function"
    },
    {
      "inputs": [
        {
          "internalType": "address",
          "name": "productAddress",
          "type": "address"
        }
      ],
      "name": "deleteProduct",
      "outputs": [],
      "stateMutability": "nonpayable",
      "type": "function"
    },
    {
      "inputs": [],
      "name": "getFactoryOwner",
      "outputs": [
        {
          "internalType": "address",
          "name": "",
          "type": "address"
        }
      ],
      "stateMutability": "view",
      "type": "function"
    },
    {
      "inputs": [],
      "name": "getNumberOfProducts",
      "outputs": [
        {
          "internalType": "uint256",
          "name": "",
          "type": "uint256"
        }
      ],
      "stateMutability": "view",
      "type": "function"
    },
    {
      "inputs": [
        {
          "internalType": "address",
          "name": "productAddress",
          "type": "address"
        }
      ],
      "name": "getProductAtAddress",
      "outputs": [
        {
          "internalType": "contract Product",
          "name": "",
          "type": "address"
        }
      ],
      "stateMutability": "view",
      "type": "function"
    },
    {
      "inputs": [
        {
          "internalType": "uint256",
          "name": "productIndex",
          "type": "uint256"
        }
      ],
      "name": "getProductAtIndex",
      "outputs": [
        {
          "internalType": "contract Product",
          "name": "",
          "type": "address"
        }
      ],
      "stateMutability": "view",
      "type": "function"
    },
    {
      "inputs": [
        {
          "internalType": "address",
          "name": "productAddress",
          "type": "address"
        }
      ],
      "name": "getProductName",
      "outputs": [
        {
          "internalType": "string",
          "name": "",
          "type": "string"
        }
      ],
      "stateMutability": "view",
      "type": "function"
    },
    {
      "inputs": [
        {
          "internalType": "address",
          "name": "productAddress",
          "type": "address"
        }
      ],
      "name": "getProductSymbol",
      "outputs": [
        {
          "internalType": "string",
          "name": "",
          "type": "string"
        }
      ],
      "stateMutability": "view",
      "type": "function"
    },
    {
      "inputs": [
        {
          "internalType": "address",
          "name": "productAddress",
          "type": "address"
        },
        {
          "internalType": "uint256",
          "name": "tokenID",
          "type": "uint256"
        }
      ],
      "name": "getProductURI",
      "outputs": [
        {
          "internalType": "string",
          "name": "",
          "type": "string"
        }
      ],
      "stateMutability": "view",
      "type": "function"
    },
    {
      "inputs": [
        {
          "internalType": "address",
          "name": "productAddress",
          "type": "address"
        }
      ],
      "name": "getWarrantyPeriod",
      "outputs": [
        {
          "internalType": "uint256",
          "name": "",
          "type": "uint256"
        }
      ],
      "stateMutability": "view",
      "type": "function"
    }
  ],
  "bytecode": "0x608060405234801561001057600080fd5b5033600160006101000a81548173ffffffffffffffffffffffffffffffffffffffff021916908373ffffffffffffffffffffffffffffffffffffffff1602179055506000600281905550614b08806100696000396000f3fe60806040523480156200001157600080fd5b5060043610620000ac5760003560e01c80636daf0fbb116200006f5780636daf0fbb1462000195578063776059ec14620001b5578063912106f314620001eb578063e09bda6b1462000221578063e77939de146200024357620000ac565b80631271015814620000b15780633ffd81fb14620000e75780634e13e73a14620001095780634fb39b7414620001295780636bd450f5146200015f575b600080fd5b620000cf6004803603810190620000c9919062001151565b62000279565b604051620000de919062001227565b60405180910390f35b620000f162000417565b60405162000100919062001266565b60405180910390f35b62000127600480360381019062000121919062001151565b62000421565b005b62000147600480360381019062000141919062001151565b6200085c565b604051620001569190620012ee565b60405180910390f35b6200017d600480360381019062000177919062001151565b62000974565b6040516200018c919062001227565b60405180910390f35b620001b36004803603810190620001ad91906200148d565b62000b12565b005b620001d36004803603810190620001cd919062001572565b62000cc1565b604051620001e29190620012ee565b60405180910390f35b620002096004803603810190620002039190620015a4565b62000d55565b60405162000218919062001227565b60405180910390f35b6200022b62000f07565b6040516200023a9190620015fc565b60405180910390f35b6200026160048036038101906200025b919062001151565b62000f31565b60405162000270919062001266565b60405180910390f35b60608160001515600460008373ffffffffffffffffffffffffffffffffffffffff1673ffffffffffffffffffffffffffffffffffffffff16815260200190815260200160002060009054906101000a900460ff161515141562000308576040517f15383d8100000000000000000000000000000000000000000000000000000000815260040160405180910390fd5b6000600360008573ffffffffffffffffffffffffffffffffffffffff1673ffffffffffffffffffffffffffffffffffffffff16815260200190815260200160002054815481106200035e576200035d62001619565b5b9060005260206000200160009054906101000a900473ffffffffffffffffffffffffffffffffffffffff1673ffffffffffffffffffffffffffffffffffffffff166395d89b416040518163ffffffff1660e01b815260040160006040518083038186803b158015620003cf57600080fd5b505afa158015620003e4573d6000803e3d6000fd5b505050506040513d6000823e3d601f19601f820116820180604052508101906200040f9190620016c6565b915050919050565b6000600254905090565b33818173ffffffffffffffffffffffffffffffffffffffff166000600360008473ffffffffffffffffffffffffffffffffffffffff1673ffffffffffffffffffffffffffffffffffffffff168152602001908152602001600020548154811062000490576200048f62001619565b5b9060005260206000200160009054906101000a900473ffffffffffffffffffffffffffffffffffffffff1673ffffffffffffffffffffffffffffffffffffffff1663dbd0e1b66040518163ffffffff1660e01b815260040160206040518083038186803b1580156200050157600080fd5b505afa15801562000516573d6000803e3d6000fd5b505050506040513d601f19601f820116820180604052508101906200053c91906200172e565b73ffffffffffffffffffffffffffffffffffffffff16146200058a576040517f9502cee300000000000000000000000000000000000000000000000000000000815260040160405180910390fd5b8260001515600460008373ffffffffffffffffffffffffffffffffffffffff1673ffffffffffffffffffffffffffffffffffffffff16815260200190815260200160002060009054906101000a900460ff161515141562000617576040517f15383d8100000000000000000000000000000000000000000000000000000000815260040160405180910390fd5b6000600360008673ffffffffffffffffffffffffffffffffffffffff1673ffffffffffffffffffffffffffffffffffffffff168152602001908152602001600020549050600060016002546200066e91906200178f565b9050600080828154811062000688576200068762001619565b5b9060005260206000200160009054906101000a900473ffffffffffffffffffffffffffffffffffffffff1690508060008481548110620006cd57620006cc62001619565b5b9060005260206000200160006101000a81548173ffffffffffffffffffffffffffffffffffffffff021916908373ffffffffffffffffffffffffffffffffffffffff16021790555082600360008373ffffffffffffffffffffffffffffffffffffffff1673ffffffffffffffffffffffffffffffffffffffff168152602001908152602001600020819055506000600460008373ffffffffffffffffffffffffffffffffffffffff1673ffffffffffffffffffffffffffffffffffffffff16815260200190815260200160002060006101000a81548160ff02191690831515021790555060008281548110620007c857620007c762001619565b5b9060005260206000200160006101000a81549073ffffffffffffffffffffffffffffffffffffffff0219169055600260008154809291906200080a90620017ca565b9190505550428173ffffffffffffffffffffffffffffffffffffffff167fbe7adc0c94eec4e7e48a6db6cbea2a3d149250216e5ac019b84bd825a3b6917060405160405180910390a350505050505050565b60008160001515600460008373ffffffffffffffffffffffffffffffffffffffff1673ffffffffffffffffffffffffffffffffffffffff16815260200190815260200160002060009054906101000a900460ff1615151415620008eb576040517f15383d8100000000000000000000000000000000000000000000000000000000815260040160405180910390fd5b6000600360008573ffffffffffffffffffffffffffffffffffffffff1673ffffffffffffffffffffffffffffffffffffffff168152602001908152602001600020548154811062000941576200094062001619565b5b9060005260206000200160009054906101000a900473ffffffffffffffffffffffffffffffffffffffff16915050919050565b60608160001515600460008373ffffffffffffffffffffffffffffffffffffffff1673ffffffffffffffffffffffffffffffffffffffff16815260200190815260200160002060009054906101000a900460ff161515141562000a03576040517f15383d8100000000000000000000000000000000000000000000000000000000815260040160405180910390fd5b6000600360008573ffffffffffffffffffffffffffffffffffffffff1673ffffffffffffffffffffffffffffffffffffffff168152602001908152602001600020548154811062000a595762000a5862001619565b5b9060005260206000200160009054906101000a900473ffffffffffffffffffffffffffffffffffffffff1673ffffffffffffffffffffffffffffffffffffffff166306fdde036040518163ffffffff1660e01b815260040160006040518083038186803b15801562000aca57600080fd5b505afa15801562000adf573d6000803e3d6000fd5b505050506040513d6000823e3d601f19601f8201168201806040525081019062000b0a9190620016c6565b915050919050565b600033868686868660405162000b2890620010ca565b62000b3996959493929190620017f9565b604051809103906000f08015801562000b56573d6000803e3d6000fd5b5090506000819080600181540180825580915050600190039060005260206000200160009091909190916101000a81548173ffffffffffffffffffffffffffffffffffffffff021916908373ffffffffffffffffffffffffffffffffffffffff160217905550600254600360008373ffffffffffffffffffffffffffffffffffffffff1673ffffffffffffffffffffffffffffffffffffffff168152602001908152602001600020819055506001600460008373ffffffffffffffffffffffffffffffffffffffff1673ffffffffffffffffffffffffffffffffffffffff16815260200190815260200160002060006101000a81548160ff02191690831515021790555083428273ffffffffffffffffffffffffffffffffffffffff167f4c546533feaa247be4cc08acd92c2f73adae809336f01c4e2a59a89fee6cbcb260405160405180910390a46002600081548092919062000cb4906200187b565b9190505550505050505050565b60008082108062000cd457506002548210155b1562000d0c576040517f15383d8100000000000000000000000000000000000000000000000000000000815260040160405180910390fd5b6000828154811062000d235762000d2262001619565b5b9060005260206000200160009054906101000a900473ffffffffffffffffffffffffffffffffffffffff169050919050565b60608260001515600460008373ffffffffffffffffffffffffffffffffffffffff1673ffffffffffffffffffffffffffffffffffffffff16815260200190815260200160002060009054906101000a900460ff161515141562000de4576040517f15383d8100000000000000000000000000000000000000000000000000000000815260040160405180910390fd5b6000600360008673ffffffffffffffffffffffffffffffffffffffff1673ffffffffffffffffffffffffffffffffffffffff1681526020019081526020016000205490506000818154811062000e3f5762000e3e62001619565b5b9060005260206000200160009054906101000a900473ffffffffffffffffffffffffffffffffffffffff1673ffffffffffffffffffffffffffffffffffffffff1663c87b56dd856040518263ffffffff1660e01b815260040162000ea4919062001266565b60006040518083038186803b15801562000ebd57600080fd5b505afa15801562000ed2573d6000803e3d6000fd5b505050506040513d6000823e3d601f19601f8201168201806040525081019062000efd9190620016c6565b9250505092915050565b6000600160009054906101000a900473ffffffffffffffffffffffffffffffffffffffff16905090565b60008160001515600460008373ffffffffffffffffffffffffffffffffffffffff1673ffffffffffffffffffffffffffffffffffffffff16815260200190815260200160002060009054906101000a900460ff161515141562000fc0576040517f15383d8100000000000000000000000000000000000000000000000000000000815260040160405180910390fd5b6000600360008573ffffffffffffffffffffffffffffffffffffffff1673ffffffffffffffffffffffffffffffffffffffff168152602001908152602001600020548154811062001016576200101562001619565b5b9060005260206000200160009054906101000a900473ffffffffffffffffffffffffffffffffffffffff1673ffffffffffffffffffffffffffffffffffffffff16633d983d556040518163ffffffff1660e01b815260040160206040518083038186803b1580156200108757600080fd5b505afa1580156200109c573d6000803e3d6000fd5b505050506040513d601f19601f82011682018060405250810190620010c29190620018e0565b915050919050565b6131c0806200191383390190565b6000604051905090565b600080fd5b600080fd5b600073ffffffffffffffffffffffffffffffffffffffff82169050919050565b60006200111982620010ec565b9050919050565b6200112b816200110c565b81146200113757600080fd5b50565b6000813590506200114b8162001120565b92915050565b6000602082840312156200116a5762001169620010e2565b5b60006200117a848285016200113a565b91505092915050565b600081519050919050565b600082825260208201905092915050565b60005b83811015620011bf578082015181840152602081019050620011a2565b83811115620011cf576000848401525b50505050565b6000601f19601f8301169050919050565b6000620011f38262001183565b620011ff81856200118e565b9350620012118185602086016200119f565b6200121c81620011d5565b840191505092915050565b60006020820190508181036000830152620012438184620011e6565b905092915050565b6000819050919050565b62001260816200124b565b82525050565b60006020820190506200127d600083018462001255565b92915050565b6000819050919050565b6000620012ae620012a8620012a284620010ec565b62001283565b620010ec565b9050919050565b6000620012c2826200128d565b9050919050565b6000620012d682620012b5565b9050919050565b620012e881620012c9565b82525050565b6000602082019050620013056000830184620012dd565b92915050565b600080fd5b600080fd5b7f4e487b7100000000000000000000000000000000000000000000000000000000600052604160045260246000fd5b6200134f82620011d5565b810181811067ffffffffffffffff8211171562001371576200137062001315565b5b80604052505050565b600062001386620010d8565b905062001394828262001344565b919050565b600067ffffffffffffffff821115620013b757620013b662001315565b5b620013c282620011d5565b9050602081019050919050565b82818337600083830152505050565b6000620013f5620013ef8462001399565b6200137a565b90508281526020810184848401111562001414576200141362001310565b5b62001421848285620013cf565b509392505050565b600082601f8301126200144157620014406200130b565b5b813562001453848260208601620013de565b91505092915050565b62001467816200124b565b81146200147357600080fd5b50565b60008135905062001487816200145c565b92915050565b600080600080600060a08688031215620014ac57620014ab620010e2565b5b600086013567ffffffffffffffff811115620014cd57620014cc620010e7565b5b620014db8882890162001429565b955050602086013567ffffffffffffffff811115620014ff57620014fe620010e7565b5b6200150d8882890162001429565b9450506040620015208882890162001476565b9350506060620015338882890162001476565b925050608086013567ffffffffffffffff811115620015575762001556620010e7565b5b620015658882890162001429565b9150509295509295909350565b6000602082840312156200158b576200158a620010e2565b5b60006200159b8482850162001476565b91505092915050565b60008060408385031215620015be57620015bd620010e2565b5b6000620015ce858286016200113a565b9250506020620015e18582860162001476565b9150509250929050565b620015f6816200110c565b82525050565b6000602082019050620016136000830184620015eb565b92915050565b7f4e487b7100000000000000000000000000000000000000000000000000000000600052603260045260246000fd5b60006200165f620016598462001399565b6200137a565b9050828152602081018484840111156200167e576200167d62001310565b5b6200168b8482856200119f565b509392505050565b600082601f830112620016ab57620016aa6200130b565b5b8151620016bd84826020860162001648565b91505092915050565b600060208284031215620016df57620016de620010e2565b5b600082015167ffffffffffffffff8111156200170057620016ff620010e7565b5b6200170e8482850162001693565b91505092915050565b600081519050620017288162001120565b92915050565b600060208284031215620017475762001746620010e2565b5b6000620017578482850162001717565b91505092915050565b7f4e487b7100000000000000000000000000000000000000000000000000000000600052601160045260246000fd5b60006200179c826200124b565b9150620017a9836200124b565b925082821015620017bf57620017be62001760565b5b828203905092915050565b6000620017d7826200124b565b91506000821415620017ee57620017ed62001760565b5b600182039050919050565b600060c082019050620018106000830189620015eb565b8181036020830152620018248188620011e6565b905081810360408301526200183a8187620011e6565b90506200184b606083018662001255565b6200185a608083018562001255565b81810360a08301526200186e8184620011e6565b9050979650505050505050565b600062001888826200124b565b91507fffffffffffffffffffffffffffffffffffffffffffffffffffffffffffffffff821415620018be57620018bd62001760565b5b600182019050919050565b600081519050620018da816200145c565b92915050565b600060208284031215620018f957620018f8620010e2565b5b60006200190984828501620018c9565b9150509291505056fe60a06040523480156200001157600080fd5b50604051620031c0380380620031c08339818101604052810190620000379190620003c4565b8484816000908051906020019062000051929190620000d7565b5080600190805190602001906200006a929190620000d7565b5050508573ffffffffffffffffffffffffffffffffffffffff1660808173ffffffffffffffffffffffffffffffffffffffff1660601b81525050826008819055508160098190555080600a9080519060200190620000ca929190620000d7565b5050505050505062000522565b828054620000e590620004ec565b90600052602060002090601f01602090048101928262000109576000855562000155565b82601f106200012457805160ff191683800117855562000155565b8280016001018555821562000155579182015b828111156200015457825182559160200191906001019062000137565b5b50905062000164919062000168565b5090565b5b808211156200018357600081600090555060010162000169565b5090565b6000604051905090565b600080fd5b600080fd5b600073ffffffffffffffffffffffffffffffffffffffff82169050919050565b6000620001c8826200019b565b9050919050565b620001da81620001bb565b8114620001e657600080fd5b50565b600081519050620001fa81620001cf565b92915050565b600080fd5b600080fd5b6000601f19601f8301169050919050565b7f4e487b7100000000000000000000000000000000000000000000000000000000600052604160045260246000fd5b62000255826200020a565b810181811067ffffffffffffffff821117156200027757620002766200021b565b5b80604052505050565b60006200028c62000187565b90506200029a82826200024a565b919050565b600067ffffffffffffffff821115620002bd57620002bc6200021b565b5b620002c8826200020a565b9050602081019050919050565b60005b83811015620002f5578082015181840152602081019050620002d8565b8381111562000305576000848401525b50505050565b6000620003226200031c846200029f565b62000280565b90508281526020810184848401111562000341576200034062000205565b5b6200034e848285620002d5565b509392505050565b600082601f8301126200036e576200036d62000200565b5b8151620003808482602086016200030b565b91505092915050565b6000819050919050565b6200039e8162000389565b8114620003aa57600080fd5b50565b600081519050620003be8162000393565b92915050565b60008060008060008060c08789031215620003e457620003e362000191565b5b6000620003f489828a01620001e9565b965050602087015167ffffffffffffffff81111562000418576200041762000196565b5b6200042689828a0162000356565b955050604087015167ffffffffffffffff8111156200044a576200044962000196565b5b6200045889828a0162000356565b94505060606200046b89828a01620003ad565b93505060806200047e89828a01620003ad565b92505060a087015167ffffffffffffffff811115620004a257620004a162000196565b5b620004b089828a0162000356565b9150509295509295509295565b7f4e487b7100000000000000000000000000000000000000000000000000000000600052602260045260246000fd5b600060028204905060018216806200050557607f821691505b602082108114156200051c576200051b620004bd565b5b50919050565b60805160601c612c7862000548600039600081816109610152610e1e0152612c786000f3fe608060405234801561001057600080fd5b50600436106101425760003560e01c80636352211e116100b8578063b4a249701161007c578063b4a2497014610375578063b88d4fde146103a5578063be1f00f0146103c1578063c87b56dd146103df578063dbd0e1b61461040f578063e985e9c51461042d57610142565b80636352211e146102ab57806370a08231146102db57806395d89b411461030b57806397ec23cb14610329578063a22cb4651461035957610142565b806323b872dd1161010a57806323b872dd146101ff5780632f583a151461021b5780633d650626146102375780633d983d551461025357806342842e0e146102715780634fdf8b3c1461028d57610142565b806301ffc9a71461014757806306fdde0314610177578063081812fc14610195578063095ea7b3146101c55780631249c58b146101e1575b600080fd5b610161600480360381019061015c9190611d1b565b61045d565b60405161016e9190611d63565b60405180910390f35b61017f61053f565b60405161018c9190611e17565b60405180910390f35b6101af60048036038101906101aa9190611e6f565b6105d1565b6040516101bc9190611edd565b60405180910390f35b6101df60048036038101906101da9190611f24565b610617565b005b6101e961072f565b6040516101f69190611f73565b60405180910390f35b61021960048036038101906102149190611f8e565b6108e7565b005b61023560048036038101906102309190611e6f565b610947565b005b610251600480360381019061024c9190611e6f565b6109d8565b005b61025b6109f4565b6040516102689190611f73565b60405180910390f35b61028b60048036038101906102869190611f8e565b6109fe565b005b610295610a1e565b6040516102a29190611f73565b60405180910390f35b6102c560048036038101906102c09190611e6f565b610a28565b6040516102d29190611edd565b60405180910390f35b6102f560048036038101906102f09190611fe1565b610ada565b6040516103029190611f73565b60405180910390f35b610313610b92565b6040516103209190611e17565b60405180910390f35b610343600480360381019061033e9190611e6f565b610c24565b6040516103509190611f73565b60405180910390f35b610373600480360381019061036e919061203a565b610c41565b005b61038f600480360381019061038a9190611e6f565b610c57565b60405161039c9190611d63565b60405180910390f35b6103bf60048036038101906103ba91906121af565b610c94565b005b6103c9610cf6565b6040516103d69190611f73565b60405180910390f35b6103f960048036038101906103f49190611e6f565b610d07565b6040516104069190611e17565b60405180910390f35b610417610e1a565b6040516104249190611edd565b60405180910390f35b61044760048036038101906104429190612232565b610e42565b6040516104549190611d63565b60405180910390f35b60007f80ac58cd000000000000000000000000000000000000000000000000000000007bffffffffffffffffffffffffffffffffffffffffffffffffffffffff1916827bffffffffffffffffffffffffffffffffffffffffffffffffffffffff1916148061052857507f5b5e139f000000000000000000000000000000000000000000000000000000007bffffffffffffffffffffffffffffffffffffffffffffffffffffffff1916827bffffffffffffffffffffffffffffffffffffffffffffffffffffffff1916145b80610538575061053782610ed6565b5b9050919050565b60606000805461054e906122a1565b80601f016020809104026020016040519081016040528092919081815260200182805461057a906122a1565b80156105c75780601f1061059c576101008083540402835291602001916105c7565b820191906000526020600020905b8154815290600101906020018083116105aa57829003601f168201915b5050505050905090565b60006105dc82610f40565b6004600083815260200190815260200160002060009054906101000a900473ffffffffffffffffffffffffffffffffffffffff169050919050565b600061062282610a28565b90508073ffffffffffffffffffffffffffffffffffffffff168373ffffffffffffffffffffffffffffffffffffffff161415610693576040517f08c379a000000000000000000000000000000000000000000000000000000000815260040161068a90612345565b60405180910390fd5b8073ffffffffffffffffffffffffffffffffffffffff166106b2610f8b565b73ffffffffffffffffffffffffffffffffffffffff1614806106e157506106e0816106db610f8b565b610e42565b5b610720576040517f08c379a0000000000000000000000000000000000000000000000000000000008152600401610717906123d7565b60405180910390fd5b61072a8383610f93565b505050565b600080600954141561076d576040517f41adb7a500000000000000000000000000000000000000000000000000000000815260040160405180910390fd5b6000610779600761104c565b9050610785338261105a565b61081981600a8054610796906122a1565b80601f01602080910402602001604051908101604052809291908181526020018280546107c2906122a1565b801561080f5780601f106107e45761010080835404028352916020019161080f565b820191906000526020600020905b8154815290600101906020018083116107f257829003601f168201915b5050505050611078565b61082360076110ec565b42600b6000838152602001908152602001600020819055506001600c600083815260200190815260200160002060006101000a81548160ff021916908315150217905550600854600b6000838152602001908152602001600020546108889190612426565b600b6000838152602001908152602001600020547f6dfeca4bf00dfdc1b2a35d84a56543b6a3276ceee24879a36ff930174c8c167360405160405180910390a3600960008154809291906108db9061247c565b91905055508091505090565b6108f86108f2610f8b565b82611102565b610937576040517f08c379a000000000000000000000000000000000000000000000000000000000815260040161092e90612518565b60405180910390fd5b610942838383611197565b505050565b338073ffffffffffffffffffffffffffffffffffffffff167f000000000000000000000000000000000000000000000000000000000000000073ffffffffffffffffffffffffffffffffffffffff16146109cd576040517f74352af900000000000000000000000000000000000000000000000000000000815260040160405180910390fd5b816008819055505050565b80600960008282546109ea9190612426565b9250508190555050565b6000600854905090565b610a1983838360405180602001604052806000815250610c94565b505050565b6000600954905090565b6000806002600084815260200190815260200160002060009054906101000a900473ffffffffffffffffffffffffffffffffffffffff169050600073ffffffffffffffffffffffffffffffffffffffff168173ffffffffffffffffffffffffffffffffffffffff161415610ad1576040517f08c379a0000000000000000000000000000000000000000000000000000000008152600401610ac890612584565b60405180910390fd5b80915050919050565b60008073ffffffffffffffffffffffffffffffffffffffff168273ffffffffffffffffffffffffffffffffffffffff161415610b4b576040517f08c379a0000000000000000000000000000000000000000000000000000000008152600401610b4290612616565b60405180910390fd5b600360008373ffffffffffffffffffffffffffffffffffffffff1673ffffffffffffffffffffffffffffffffffffffff168152602001908152602001600020549050919050565b606060018054610ba1906122a1565b80601f0160208091040260200160405190810160405280929190818152602001828054610bcd906122a1565b8015610c1a5780601f10610bef57610100808354040283529160200191610c1a565b820191906000526020600020905b815481529060010190602001808311610bfd57829003601f168201915b5050505050905090565b6000600b6000838152602001908152602001600020549050919050565b610c53610c4c610f8b565b83836113fe565b5050565b6000600854600b60008481526020019081526020016000205442610c7b9190612636565b1115610c8a5760009050610c8f565b600190505b919050565b610ca5610c9f610f8b565b83611102565b610ce4576040517f08c379a0000000000000000000000000000000000000000000000000000000008152600401610cdb90612518565b60405180910390fd5b610cf08484848461156b565b50505050565b6000610d02600761104c565b905090565b6060610d1282610f40565b6000600660008481526020019081526020016000208054610d32906122a1565b80601f0160208091040260200160405190810160405280929190818152602001828054610d5e906122a1565b8015610dab5780601f10610d8057610100808354040283529160200191610dab565b820191906000526020600020905b815481529060010190602001808311610d8e57829003601f168201915b505050505090506000610dbc6115c7565b9050600081511415610dd2578192505050610e15565b600082511115610e07578082604051602001610def9291906126a6565b60405160208183030381529060405292505050610e15565b610e10846115de565b925050505b919050565b60007f0000000000000000000000000000000000000000000000000000000000000000905090565b6000600560008473ffffffffffffffffffffffffffffffffffffffff1673ffffffffffffffffffffffffffffffffffffffff16815260200190815260200160002060008373ffffffffffffffffffffffffffffffffffffffff1673ffffffffffffffffffffffffffffffffffffffff16815260200190815260200160002060009054906101000a900460ff16905092915050565b60007f01ffc9a7000000000000000000000000000000000000000000000000000000007bffffffffffffffffffffffffffffffffffffffffffffffffffffffff1916827bffffffffffffffffffffffffffffffffffffffffffffffffffffffff1916149050919050565b610f4981611646565b610f88576040517f08c379a0000000000000000000000000000000000000000000000000000000008152600401610f7f90612584565b60405180910390fd5b50565b600033905090565b816004600083815260200190815260200160002060006101000a81548173ffffffffffffffffffffffffffffffffffffffff021916908373ffffffffffffffffffffffffffffffffffffffff160217905550808273ffffffffffffffffffffffffffffffffffffffff1661100683610a28565b73ffffffffffffffffffffffffffffffffffffffff167f8c5be1e5ebec7d5bd14f71427d1e84f3dd0314c0f7b2291e5b200ac8c7c3b92560405160405180910390a45050565b600081600001549050919050565b6110748282604051806020016040528060008152506116b2565b5050565b61108182611646565b6110c0576040517f08c379a00000000000000000000000000000000000000000000000000000000081526004016110b79061273c565b60405180910390fd5b806006600084815260200190815260200160002090805190602001906110e7929190611c0c565b505050565b6001816000016000828254019250508190555050565b60008061110e83610a28565b90508073ffffffffffffffffffffffffffffffffffffffff168473ffffffffffffffffffffffffffffffffffffffff161480611150575061114f8185610e42565b5b8061118e57508373ffffffffffffffffffffffffffffffffffffffff16611176846105d1565b73ffffffffffffffffffffffffffffffffffffffff16145b91505092915050565b8273ffffffffffffffffffffffffffffffffffffffff166111b782610a28565b73ffffffffffffffffffffffffffffffffffffffff161461120d576040517f08c379a0000000000000000000000000000000000000000000000000000000008152600401611204906127ce565b60405180910390fd5b600073ffffffffffffffffffffffffffffffffffffffff168273ffffffffffffffffffffffffffffffffffffffff16141561127d576040517f08c379a000000000000000000000000000000000000000000000000000000000815260040161127490612860565b60405180910390fd5b61128883838361170d565b611293600082610f93565b6001600360008573ffffffffffffffffffffffffffffffffffffffff1673ffffffffffffffffffffffffffffffffffffffff16815260200190815260200160002060008282546112e39190612636565b925050819055506001600360008473ffffffffffffffffffffffffffffffffffffffff1673ffffffffffffffffffffffffffffffffffffffff168152602001908152602001600020600082825461133a9190612426565b92505081905550816002600083815260200190815260200160002060006101000a81548173ffffffffffffffffffffffffffffffffffffffff021916908373ffffffffffffffffffffffffffffffffffffffff160217905550808273ffffffffffffffffffffffffffffffffffffffff168473ffffffffffffffffffffffffffffffffffffffff167fddf252ad1be2c89b69c2b068fc378daa952ba7f163c4a11628f55a4df523b3ef60405160405180910390a46113f9838383611712565b505050565b8173ffffffffffffffffffffffffffffffffffffffff168373ffffffffffffffffffffffffffffffffffffffff16141561146d576040517f08c379a0000000000000000000000000000000000000000000000000000000008152600401611464906128cc565b60405180910390fd5b80600560008573ffffffffffffffffffffffffffffffffffffffff1673ffffffffffffffffffffffffffffffffffffffff16815260200190815260200160002060008473ffffffffffffffffffffffffffffffffffffffff1673ffffffffffffffffffffffffffffffffffffffff16815260200190815260200160002060006101000a81548160ff0219169083151502179055508173ffffffffffffffffffffffffffffffffffffffff168373ffffffffffffffffffffffffffffffffffffffff167f17307eab39ab6107e8899845ad3d59bd9653f200f220920489ca2b5937696c318360405161155e9190611d63565b60405180910390a3505050565b611576848484611197565b61158284848484611717565b6115c1576040517f08c379a00000000000000000000000000000000000000000000000000000000081526004016115b89061295e565b60405180910390fd5b50505050565b606060405180602001604052806000815250905090565b60606115e982610f40565b60006115f36115c7565b90506000815111611613576040518060200160405280600081525061163e565b8061161d846118ae565b60405160200161162e9291906126a6565b6040516020818303038152906040525b915050919050565b60008073ffffffffffffffffffffffffffffffffffffffff166002600084815260200190815260200160002060009054906101000a900473ffffffffffffffffffffffffffffffffffffffff1673ffffffffffffffffffffffffffffffffffffffff1614159050919050565b6116bc8383611a0f565b6116c96000848484611717565b611708576040517f08c379a00000000000000000000000000000000000000000000000000000000081526004016116ff9061295e565b60405180910390fd5b505050565b505050565b505050565b60006117388473ffffffffffffffffffffffffffffffffffffffff16611be9565b156118a1578373ffffffffffffffffffffffffffffffffffffffff1663150b7a02611761610f8b565b8786866040518563ffffffff1660e01b815260040161178394939291906129d3565b602060405180830381600087803b15801561179d57600080fd5b505af19250505080156117ce57506040513d601f19601f820116820180604052508101906117cb9190612a34565b60015b611851573d80600081146117fe576040519150601f19603f3d011682016040523d82523d6000602084013e611803565b606091505b50600081511415611849576040517f08c379a00000000000000000000000000000000000000000000000000000000081526004016118409061295e565b60405180910390fd5b805181602001fd5b63150b7a0260e01b7bffffffffffffffffffffffffffffffffffffffffffffffffffffffff1916817bffffffffffffffffffffffffffffffffffffffffffffffffffffffff1916149150506118a6565b600190505b949350505050565b606060008214156118f6576040518060400160405280600181526020017f30000000000000000000000000000000000000000000000000000000000000008152509050611a0a565b600082905060005b6000821461192857808061191190612a61565b915050600a826119219190612ad9565b91506118fe565b60008167ffffffffffffffff81111561194457611943612084565b5b6040519080825280601f01601f1916602001820160405280156119765781602001600182028036833780820191505090505b5090505b60008514611a035760018261198f9190612636565b9150600a8561199e9190612b0a565b60306119aa9190612426565b60f81b8183815181106119c0576119bf612b3b565b5b60200101907effffffffffffffffffffffffffffffffffffffffffffffffffffffffffffff1916908160001a905350600a856119fc9190612ad9565b945061197a565b8093505050505b919050565b600073ffffffffffffffffffffffffffffffffffffffff168273ffffffffffffffffffffffffffffffffffffffff161415611a7f576040517f08c379a0000000000000000000000000000000000000000000000000000000008152600401611a7690612bb6565b60405180910390fd5b611a8881611646565b15611ac8576040517f08c379a0000000000000000000000000000000000000000000000000000000008152600401611abf90612c22565b60405180910390fd5b611ad46000838361170d565b6001600360008473ffffffffffffffffffffffffffffffffffffffff1673ffffffffffffffffffffffffffffffffffffffff1681526020019081526020016000206000828254611b249190612426565b92505081905550816002600083815260200190815260200160002060006101000a81548173ffffffffffffffffffffffffffffffffffffffff021916908373ffffffffffffffffffffffffffffffffffffffff160217905550808273ffffffffffffffffffffffffffffffffffffffff16600073ffffffffffffffffffffffffffffffffffffffff167fddf252ad1be2c89b69c2b068fc378daa952ba7f163c4a11628f55a4df523b3ef60405160405180910390a4611be560008383611712565b5050565b6000808273ffffffffffffffffffffffffffffffffffffffff163b119050919050565b828054611c18906122a1565b90600052602060002090601f016020900481019282611c3a5760008555611c81565b82601f10611c5357805160ff1916838001178555611c81565b82800160010185558215611c81579182015b82811115611c80578251825591602001919060010190611c65565b5b509050611c8e9190611c92565b5090565b5b80821115611cab576000816000905550600101611c93565b5090565b6000604051905090565b600080fd5b600080fd5b60007fffffffff0000000000000000000000000000000000000000000000000000000082169050919050565b611cf881611cc3565b8114611d0357600080fd5b50565b600081359050611d1581611cef565b92915050565b600060208284031215611d3157611d30611cb9565b5b6000611d3f84828501611d06565b91505092915050565b60008115159050919050565b611d5d81611d48565b82525050565b6000602082019050611d786000830184611d54565b92915050565b600081519050919050565b600082825260208201905092915050565b60005b83811015611db8578082015181840152602081019050611d9d565b83811115611dc7576000848401525b50505050565b6000601f19601f8301169050919050565b6000611de982611d7e565b611df38185611d89565b9350611e03818560208601611d9a565b611e0c81611dcd565b840191505092915050565b60006020820190508181036000830152611e318184611dde565b905092915050565b6000819050919050565b611e4c81611e39565b8114611e5757600080fd5b50565b600081359050611e6981611e43565b92915050565b600060208284031215611e8557611e84611cb9565b5b6000611e9384828501611e5a565b91505092915050565b600073ffffffffffffffffffffffffffffffffffffffff82169050919050565b6000611ec782611e9c565b9050919050565b611ed781611ebc565b82525050565b6000602082019050611ef26000830184611ece565b92915050565b611f0181611ebc565b8114611f0c57600080fd5b50565b600081359050611f1e81611ef8565b92915050565b60008060408385031215611f3b57611f3a611cb9565b5b6000611f4985828601611f0f565b9250506020611f5a85828601611e5a565b9150509250929050565b611f6d81611e39565b82525050565b6000602082019050611f886000830184611f64565b92915050565b600080600060608486031215611fa757611fa6611cb9565b5b6000611fb586828701611f0f565b9350506020611fc686828701611f0f565b9250506040611fd786828701611e5a565b9150509250925092565b600060208284031215611ff757611ff6611cb9565b5b600061200584828501611f0f565b91505092915050565b61201781611d48565b811461202257600080fd5b50565b6000813590506120348161200e565b92915050565b6000806040838503121561205157612050611cb9565b5b600061205f85828601611f0f565b925050602061207085828601612025565b9150509250929050565b600080fd5b600080fd5b7f4e487b7100000000000000000000000000000000000000000000000000000000600052604160045260246000fd5b6120bc82611dcd565b810181811067ffffffffffffffff821117156120db576120da612084565b5b80604052505050565b60006120ee611caf565b90506120fa82826120b3565b919050565b600067ffffffffffffffff82111561211a57612119612084565b5b61212382611dcd565b9050602081019050919050565b82818337600083830152505050565b600061215261214d846120ff565b6120e4565b90508281526020810184848401111561216e5761216d61207f565b5b612179848285612130565b509392505050565b600082601f8301126121965761219561207a565b5b81356121a684826020860161213f565b91505092915050565b600080600080608085870312156121c9576121c8611cb9565b5b60006121d787828801611f0f565b94505060206121e887828801611f0f565b93505060406121f987828801611e5a565b925050606085013567ffffffffffffffff81111561221a57612219611cbe565b5b61222687828801612181565b91505092959194509250565b6000806040838503121561224957612248611cb9565b5b600061225785828601611f0f565b925050602061226885828601611f0f565b9150509250929050565b7f4e487b7100000000000000000000000000000000000000000000000000000000600052602260045260246000fd5b600060028204905060018216806122b957607f821691505b602082108114156122cd576122cc612272565b5b50919050565b7f4552433732313a20617070726f76616c20746f2063757272656e74206f776e6560008201527f7200000000000000000000000000000000000000000000000000000000000000602082015250565b600061232f602183611d89565b915061233a826122d3565b604082019050919050565b6000602082019050818103600083015261235e81612322565b9050919050565b7f4552433732313a20617070726f76652063616c6c6572206973206e6f7420746f60008201527f6b656e206f776e6572206e6f7220617070726f76656420666f7220616c6c0000602082015250565b60006123c1603e83611d89565b91506123cc82612365565b604082019050919050565b600060208201905081810360008301526123f0816123b4565b9050919050565b7f4e487b7100000000000000000000000000000000000000000000000000000000600052601160045260246000fd5b600061243182611e39565b915061243c83611e39565b9250827fffffffffffffffffffffffffffffffffffffffffffffffffffffffffffffffff03821115612471576124706123f7565b5b828201905092915050565b600061248782611e39565b9150600082141561249b5761249a6123f7565b5b600182039050919050565b7f4552433732313a2063616c6c6572206973206e6f7420746f6b656e206f776e6560008201527f72206e6f7220617070726f766564000000000000000000000000000000000000602082015250565b6000612502602e83611d89565b915061250d826124a6565b604082019050919050565b60006020820190508181036000830152612531816124f5565b9050919050565b7f4552433732313a20696e76616c696420746f6b656e2049440000000000000000600082015250565b600061256e601883611d89565b915061257982612538565b602082019050919050565b6000602082019050818103600083015261259d81612561565b9050919050565b7f4552433732313a2061646472657373207a65726f206973206e6f74206120766160008201527f6c6964206f776e65720000000000000000000000000000000000000000000000602082015250565b6000612600602983611d89565b915061260b826125a4565b604082019050919050565b6000602082019050818103600083015261262f816125f3565b9050919050565b600061264182611e39565b915061264c83611e39565b92508282101561265f5761265e6123f7565b5b828203905092915050565b600081905092915050565b600061268082611d7e565b61268a818561266a565b935061269a818560208601611d9a565b80840191505092915050565b60006126b28285612675565b91506126be8284612675565b91508190509392505050565b7f45524337323155524953746f726167653a2055524920736574206f66206e6f6e60008201527f6578697374656e7420746f6b656e000000000000000000000000000000000000602082015250565b6000612726602e83611d89565b9150612731826126ca565b604082019050919050565b6000602082019050818103600083015261275581612719565b9050919050565b7f4552433732313a207472616e736665722066726f6d20696e636f72726563742060008201527f6f776e6572000000000000000000000000000000000000000000000000000000602082015250565b60006127b8602583611d89565b91506127c38261275c565b604082019050919050565b600060208201905081810360008301526127e7816127ab565b9050919050565b7f4552433732313a207472616e7366657220746f20746865207a65726f2061646460008201527f7265737300000000000000000000000000000000000000000000000000000000602082015250565b600061284a602483611d89565b9150612855826127ee565b604082019050919050565b600060208201905081810360008301526128798161283d565b9050919050565b7f4552433732313a20617070726f766520746f2063616c6c657200000000000000600082015250565b60006128b6601983611d89565b91506128c182612880565b602082019050919050565b600060208201905081810360008301526128e5816128a9565b9050919050565b7f4552433732313a207472616e7366657220746f206e6f6e20455243373231526560008201527f63656976657220696d706c656d656e7465720000000000000000000000000000602082015250565b6000612948603283611d89565b9150612953826128ec565b604082019050919050565b600060208201905081810360008301526129778161293b565b9050919050565b600081519050919050565b600082825260208201905092915050565b60006129a58261297e565b6129af8185612989565b93506129bf818560208601611d9a565b6129c881611dcd565b840191505092915050565b60006080820190506129e86000830187611ece565b6129f56020830186611ece565b612a026040830185611f64565b8181036060830152612a14818461299a565b905095945050505050565b600081519050612a2e81611cef565b92915050565b600060208284031215612a4a57612a49611cb9565b5b6000612a5884828501612a1f565b91505092915050565b6000612a6c82611e39565b91507fffffffffffffffffffffffffffffffffffffffffffffffffffffffffffffffff821415612a9f57612a9e6123f7565b5b600182019050919050565b7f4e487b7100000000000000000000000000000000000000000000000000000000600052601260045260246000fd5b6000612ae482611e39565b9150612aef83611e39565b925082612aff57612afe612aaa565b5b828204905092915050565b6000612b1582611e39565b9150612b2083611e39565b925082612b3057612b2f612aaa565b5b828206905092915050565b7f4e487b7100000000000000000000000000000000000000000000000000000000600052603260045260246000fd5b7f4552433732313a206d696e7420746f20746865207a65726f2061646472657373600082015250565b6000612ba0602083611d89565b9150612bab82612b6a565b602082019050919050565b60006020820190508181036000830152612bcf81612b93565b9050919050565b7f4552433732313a20746f6b656e20616c7265616479206d696e74656400000000600082015250565b6000612c0c601c83611d89565b9150612c1782612bd6565b602082019050919050565b60006020820190508181036000830152612c3b81612bff565b905091905056fea2646970667358221220d572b170789d24bdcb960eae254044f1927fad08d4d24e74711dd26eed49cc2d64736f6c63430008080033a264697066735822122007d99a668115d2b5cbf031d2d5dae1cfa029e945c469857a1d8b88fed53bf75864736f6c63430008080033",
  "linkReferences": {},
  "deployedLinkReferences": {}
}